20161117-09:48:55.000 : 8=FIX.4.2|9=82|35=A|34=1|49=sgmmDEMOSOMFXTRADE|52=20161117-09:48:55.000|56=CNX|98=0|108=60|141=Y|10=239|
20161117-09:53:11.000 : 8=FIX.4.2|9=82|35=A|34=1|49=sgmmDEMOSOMFXTRADE|52=20161117-09:53:11.000|56=CNX|98=0|108=60|141=Y|10=227|
20161117-10:05:25.000 : 8=FIX.4.2|9=82|35=A|34=1|49=sgmmDEMOSOMFXTRADE|52=20161117-10:05:25.000|56=CNX|98=0|108=60|141=Y|10=221|
20161117-10:06:26.000 : 8=FIX.4.2|9=82|35=A|34=1|49=sgmmDEMOSOMFXTRADE|52=20161117-10:06:26.000|56=CNX|98=0|108=60|141=Y|10=223|
20161117-10:07:25.000 : 8=FIX.4.2|9=82|35=A|34=1|49=sgmmDEMOSOMFXTRADE|52=20161117-10:07:25.000|56=CNX|98=0|108=60|141=Y|10=223|
20161117-10:08:25.000 : 8=FIX.4.2|9=82|35=A|34=1|49=sgmmDEMOSOMFXTRADE|52=20161117-10:08:25.000|56=CNX|98=0|108=60|141=Y|10=224|
20161117-10:09:25.000 : 8=FIX.4.2|9=82|35=A|34=1|49=sgmmDEMOSOMFXTRADE|52=20161117-10:09:25.000|56=CNX|98=0|108=60|141=Y|10=225|
20161117-10:10:25.000 : 8=FIX.4.2|9=82|35=A|34=1|49=sgmmDEMOSOMFXTRADE|52=20161117-10:10:25.000|56=CNX|98=0|108=60|141=Y|10=217|
20161117-10:11:25.000 : 8=FIX.4.2|9=82|35=A|34=1|49=sgmmDEMOSOMFXTRADE|52=20161117-10:11:25.000|56=CNX|98=0|108=60|141=Y|10=218|
20161117-10:12:25.000 : 8=FIX.4.2|9=82|35=A|34=1|49=sgmmDEMOSOMFXTRADE|52=20161117-10:12:25.000|56=CNX|98=0|108=60|141=Y|10=219|
20161117-10:13:25.000 : 8=FIX.4.2|9=82|35=A|34=1|49=sgmmDEMOSOMFXTRADE|52=20161117-10:13:25.000|56=CNX|98=0|108=60|141=Y|10=220|
20161117-10:14:25.000 : 8=FIX.4.2|9=82|35=A|34=1|49=sgmmDEMOSOMFXTRADE|52=20161117-10:14:25.000|56=CNX|98=0|108=60|141=Y|10=221|
20161117-10:15:25.000 : 8=FIX.4.2|9=82|35=A|34=1|49=sgmmDEMOSOMFXTRADE|52=20161117-10:15:25.000|56=CNX|98=0|108=60|141=Y|10=222|
20161117-10:16:25.000 : 8=FIX.4.2|9=82|35=A|34=1|49=sgmmDEMOSOMFXTRADE|52=20161117-10:16:25.000|56=CNX|98=0|108=60|141=Y|10=223|
20161117-10:17:10.000 : 8=FIX.4.2|9=82|35=A|34=1|49=sgmmDEMOSOMFXTRADE|52=20161117-10:17:10.000|56=CNX|98=0|108=60|141=Y|10=218|
20161117-10:17:40.000 : 8=FIX.4.2|9=82|35=A|34=1|49=sgmmDEMOSOMFXTRADE|52=20161117-10:17:40.000|56=CNX|98=0|108=60|141=Y|10=221|
20161117-10:18:10.000 : 8=FIX.4.2|9=82|35=A|34=1|49=sgmmDEMOSOMFXTRADE|52=20161117-10:18:10.000|56=CNX|98=0|108=60|141=Y|10=219|
20161117-10:18:40.000 : 8=FIX.4.2|9=82|35=A|34=1|49=sgmmDEMOSOMFXTRADE|52=20161117-10:18:40.000|56=CNX|98=0|108=60|141=Y|10=222|
20161117-10:19:10.000 : 8=FIX.4.2|9=82|35=A|34=1|49=sgmmDEMOSOMFXTRADE|52=20161117-10:19:10.000|56=CNX|98=0|108=60|141=Y|10=220|
20161117-10:19:40.000 : 8=FIX.4.2|9=82|35=A|34=1|49=sgmmDEMOSOMFXTRADE|52=20161117-10:19:40.000|56=CNX|98=0|108=60|141=Y|10=223|
20161117-10:20:10.000 : 8=FIX.4.2|9=82|35=A|34=1|49=sgmmDEMOSOMFXTRADE|52=20161117-10:20:10.000|56=CNX|98=0|108=60|141=Y|10=212|
20161117-10:20:40.000 : 8=FIX.4.2|9=82|35=A|34=1|49=sgmmDEMOSOMFXTRADE|52=20161117-10:20:40.000|56=CNX|98=0|108=60|141=Y|10=215|
20161117-10:21:10.000 : 8=FIX.4.2|9=82|35=A|34=1|49=sgmmDEMOSOMFXTRADE|52=20161117-10:21:10.000|56=CNX|98=0|108=60|141=Y|10=213|
20161117-10:21:40.000 : 8=FIX.4.2|9=82|35=A|34=1|49=sgmmDEMOSOMFXTRADE|52=20161117-10:21:40.000|56=CNX|98=0|108=60|141=Y|10=216|
20161117-10:22:10.000 : 8=FIX.4.2|9=82|35=A|34=1|49=sgmmDEMOSOMFXTRADE|52=20161117-10:22:10.000|56=CNX|98=0|108=60|141=Y|10=214|
20161117-10:22:37.000 : 8=FIX.4.2|9=82|35=A|34=1|49=sgmmDEMOSOMFXTRADE|52=20161117-10:22:37.000|56=CNX|98=0|108=60|141=Y|10=223|
20161117-10:22:48.000 : 8=FIX.4.2|9=82|35=A|34=1|49=sgmmDEMOSOMFXTRADE|52=20161117-10:22:48.000|56=CNX|98=0|108=60|141=Y|10=225|
20161117-10:23:18.000 : 8=FIX.4.2|9=82|35=A|34=1|49=sgmmDEMOSOMFXTRADE|52=20161117-10:23:18.000|56=CNX|98=0|108=60|141=Y|10=223|
20161117-10:23:48.000 : 8=FIX.4.2|9=82|35=A|34=1|49=sgmmDEMOSOMFXTRADE|52=20161117-10:23:48.000|56=CNX|98=0|108=60|141=Y|10=226|
20161117-10:24:18.000 : 8=FIX.4.2|9=82|35=A|34=1|49=sgmmDEMOSOMFXTRADE|52=20161117-10:24:18.000|56=CNX|98=0|108=60|141=Y|10=224|
20161117-10:24:48.000 : 8=FIX.4.2|9=82|35=A|34=1|49=sgmmDEMOSOMFXTRADE|52=20161117-10:24:48.000|56=CNX|98=0|108=60|141=Y|10=227|
20161117-10:25:18.000 : 8=FIX.4.2|9=82|35=A|34=1|49=sgmmDEMOSOMFXTRADE|52=20161117-10:25:18.000|56=CNX|98=0|108=60|141=Y|10=225|
20161117-10:25:48.000 : 8=FIX.4.2|9=82|35=A|34=1|49=sgmmDEMOSOMFXTRADE|52=20161117-10:25:48.000|56=CNX|98=0|108=60|141=Y|10=228|
20161117-10:26:18.000 : 8=FIX.4.2|9=82|35=A|34=1|49=sgmmDEMOSOMFXTRADE|52=20161117-10:26:18.000|56=CNX|98=0|108=60|141=Y|10=226|
20161117-10:26:48.000 : 8=FIX.4.2|9=82|35=A|34=1|49=sgmmDEMOSOMFXTRADE|52=20161117-10:26:48.000|56=CNX|98=0|108=60|141=Y|10=229|
20161117-10:27:18.000 : 8=FIX.4.2|9=82|35=A|34=1|49=sgmmDEMOSOMFXTRADE|52=20161117-10:27:18.000|56=CNX|98=0|108=60|141=Y|10=227|
